{
  "contractName": "Commits",
  "abi": [
    {
      "constant": true,
      "inputs": [
        {
          "name": "",
          "type": "bytes20"
        }
      ],
      "name": "checkpoints",
      "outputs": [
        {
          "name": "",
          "type": "uint256"
        }
      ],
      "payable": false,
      "stateMutability": "view",
      "type": "function"
    },
    {
      "anonymous": false,
      "inputs": [
        {
          "indexed": true,
          "name": "sender",
          "type": "address"
        },
        {
          "indexed": true,
          "name": "commit",
          "type": "bytes20"
        }
      ],
      "name": "Checkpointed",
      "type": "event"
    },
    {
      "constant": false,
      "inputs": [
        {
          "components": [
            {
              "name": "tree",
              "type": "string"
            },
            {
              "name": "parents",
              "type": "string[]"
            },
            {
              "name": "author",
              "type": "string"
            },
            {
              "name": "authorDate",
              "type": "uint256"
            },
            {
              "name": "authorDateTzOffset",
              "type": "string"
            },
            {
              "name": "committer",
              "type": "string"
            },
            {
              "name": "commitDate",
              "type": "uint256"
            },
            {
              "name": "commitDateTzOffset",
              "type": "string"
            },
            {
              "name": "message",
              "type": "string"
            },
            {
              "name": "signature",
              "type": "string"
            }
          ],
          "name": "_commit",
          "type": "tuple"
        }
      ],
      "name": "checkpoint",
      "outputs": [
        {
          "name": "commitHash",
          "type": "bytes20"
        }
      ],
      "payable": false,
      "stateMutability": "nonpayable",
      "type": "function"
    },
    {
      "constant": true,
      "inputs": [
        {
          "name": "commit",
          "type": "bytes20"
        }
      ],
      "name": "checkpointed",
      "outputs": [
        {
          "name": "",
          "type": "bool"
        }
      ],
      "payable": false,
      "stateMutability": "view",
      "type": "function"
    },
    {
      "constant": true,
      "inputs": [
        {
          "name": "commit",
          "type": "bytes20"
        },
        {
          "name": "root",
          "type": "bytes20"
        },
        {
          "name": "leaf",
          "type": "bytes20"
        },
        {
          "name": "proof",
          "type": "bytes20[]"
        }
      ],
      "name": "checkpointVerify",
      "outputs": [
        {
          "name": "",
          "type": "bool"
        }
      ],
      "payable": false,
      "stateMutability": "view",
      "type": "function"
    },
    {
      "constant": true,
      "inputs": [
        {
          "name": "root",
          "type": "bytes20"
        },
        {
          "name": "leaf",
          "type": "bytes20"
        },
        {
          "name": "proof",
          "type": "bytes20[]"
        }
      ],
      "name": "verify",
      "outputs": [
        {
          "name": "",
          "type": "bool"
        }
      ],
      "payable": false,
      "stateMutability": "pure",
      "type": "function"
    }
  ],
  "bytecode": "0x608060405234801561001057600080fd5b50611fea806100206000396000f3fe608060405234801561001057600080fd5b50600436106100575760003560e01c806356121c1b1461005c57806360f843c91461008c5780639d67af1f146100bc5780639e7e590f146100ec578063bbbe6d2f1461011c575b600080fd5b61007660048036036100719190810190611caf565b61014c565b6040516100839190611e43565b60405180910390f35b6100a660048036036100a19190810190611ba4565b610d00565b6040516100b39190611e28565b60405180910390f35b6100d660048036036100d19190810190611bcd565b610d3d565b6040516100e39190611e28565b60405180910390f35b61010660048036036101019190810190611ba4565b610e28565b6040516101139190611e5e565b60405180910390f35b61013660048036036101319190810190611c34565b610e40565b6040516101439190611e28565b60405180910390f35b60006201518042018260c00135111561016457600080fd5b6201518042038260c001351161017957600080fd5b60606102c46040518060400160405280600581526020017f74726565200000000000000000000000000000000000000000000000000000008152508480600001803560016020038336030381126101cf57600080fd5b8083019250508135905060208201915067ffffffffffffffff8111156101f457600080fd5b60018102360382131561020657600080fd5b8080601f016020809104026020016040519081016040528093929190818152602001838380828437600081840152601f19601f820116905080830192505050505050506040518060400160405280600181526020017f0a0000000000000000000000000000000000000000000000000000000000000081525060405180602001604052806000815250604051806020016040528060008152506040518060200160405280600081525060405180602001604052806000815250610e94565b9050606060008090505b8480602001803560016020038336030381126102e957600080fd5b8083019250508135905060208201915067ffffffffffffffff81111561030e57600080fd5b60208102360382131561032057600080fd5b90508110156104d0576104c1826040518060400160405280600781526020017f706172656e74200000000000000000000000000000000000000000000000000081525087806020018035600160200383360303811261037e57600080fd5b8083019250508135905060208201915067ffffffffffffffff8111156103a357600080fd5b6020810236038213156103b557600080fd5b858181106103bf57fe5b90506020028101803560016020038336030381126103dc57600080fd5b8083019250508135905060208201915067ffffffffffffffff81111561040157600080fd5b60018102360382131561041357600080fd5b8080601f016020809104026020016040519081016040528093929190818152602001838380828437600081840152601f19601f820116905080830192505050505050506040518060400160405280600181526020017f0a00000000000000000000000000000000000000000000000000000000000000815250604051806020016040528060008152506040518060200160405280600081525060405180602001604052806000815250610e94565b915080806001019150506102ce565b5060606106ea6040518060400160405280600781526020017f617574686f72200000000000000000000000000000000000000000000000000081525086806040018035600160200383360303811261052757600080fd5b8083019250508135905060208201915067ffffffffffffffff81111561054c57600080fd5b60018102360382131561055e57600080fd5b8080601f016020809104026020016040519081016040528093929190818152602001838380828437600081840152601f19601f820116905080830192505050505050506040518060400160405280600181526020017f20000000000000000000000000000000000000000000000000000000000000008152506105e48960600135611258565b6040518060400160405280600181526020017f20000000000000000000000000000000000000000000000000000000000000008152508a806080018035600160200383360303811261063557600080fd5b8083019250508135905060208201915067ffffffffffffffff81111561065a57600080fd5b60018102360382131561066c57600080fd5b8080601f016020809104026020016040519081016040528093929190818152602001838380828437600081840152601f19601f820116905080830192505050505050506040518060400160405280600181526020017f0a00000000000000000000000000000000000000000000000000000000000000815250610e94565b905060606109056040518060400160405280600a81526020017f636f6d6d69747465722000000000000000000000000000000000000000000000815250878060a0018035600160200383360303811261074257600080fd5b8083019250508135905060208201915067ffffffffffffffff81111561076757600080fd5b60018102360382131561077957600080fd5b8080601f016020809104026020016040519081016040528093929190818152602001838380828437600081840152601f19601f820116905080830192505050505050506040518060400160405280600181526020017f20000000000000000000000000000000000000000000000000000000000000008152506107ff8a60c00135611258565b6040518060400160405280600181526020017f20000000000000000000000000000000000000000000000000000000000000008152508b8060e0018035600160200383360303811261085057600080fd5b8083019250508135905060208201915067ffffffffffffffff81111561087557600080fd5b60018102360382131561088757600080fd5b8080601f016020809104026020016040519081016040528093929190818152602001838380828437600081840152601f19601f820116905080830192505050505050506040518060400160405280600181526020017f0a00000000000000000000000000000000000000000000000000000000000000815250610e94565b9050606060405180602001604052806000815250905060008780610120018035600160200383360303811261093957600080fd5b8083019250508135905060208201915067ffffffffffffffff81111561095e57600080fd5b60018102360382131561097057600080fd5b90501115610a9f57610a9c6040518060400160405280600781526020017f6770677369672000000000000000000000000000000000000000000000000000815250888061012001803560016020038336030381126109cd57600080fd5b8083019250508135905060208201915067ffffffffffffffff8111156109f257600080fd5b600181023603821315610a0457600080fd5b8080601f016020809104026020016040519081016040528093929190818152602001838380828437600081840152601f19601f820116905080830192505050505050506040518060200160405280600081525060405180602001604052806000815250604051806020016040528060008152506040518060200160405280600081525060405180602001604052806000815250610e94565b90505b6060610bc56040518060400160405280600181526020017f0a0000000000000000000000000000000000000000000000000000000000000081525089806101000180356001602003833603038112610af657600080fd5b8083019250508135905060208201915067ffffffffffffffff811115610b1b57600080fd5b600181023603821315610b2d57600080fd5b8080601f016020809104026020016040519081016040528093929190818152602001838380828437600081840152601f19601f820116905080830192505050505050506040518060200160405280600081525060405180602001604052806000815250604051806020016040528060008152506040518060200160405280600081525060405180602001604052806000815250610e94565b90506060610be787878787878760405180602001604052806000815250610e94565b9050610c29610bfd610bf8836113c7565b611258565b600060f81b83604051602001610c1593929190611de8565b6040516020818303038152906040526115cf565b975060008060008a6bffffffffffffffffffffffff19166bffffffffffffffffffffffff191681526020019081526020016000205414610c6857600080fd5b8860c001356000808a6bffffffffffffffffffffffff19166bffffffffffffffffffffffff1916815260200190815260200160002081905550876bffffffffffffffffffffffff19163373ffffffffffffffffffffffffffffffffffffffff167fb3d1215caf308a6c1e9c1df8f9be12a9d4397084142fbde20bf6369b74e4fb7260405160405180910390a350505050505050919050565b600080600080846bffffffffffffffffffffffff19166bffffffffffffffffffffffff191681526020019081526020016000205414159050919050565b60008083905060008090505b8351811015610dfc576000848281518110610d6057fe5b60200260200101519050806bffffffffffffffffffffffff1916836bffffffffffffffffffffffff19161015610dc157610dba8382604051602001610da6929190611dbc565b6040516020818303038152906040526115cf565b9250610dee565b610deb8184604051602001610dd7929190611dbc565b6040516020818303038152906040526115cf565b92505b508080600101915050610d49565b50846bffffffffffffffffffffffff1916816bffffffffffffffffffffffff1916149150509392505050565b60006020528060005260406000206000915090505481565b600080600080876bffffffffffffffffffffffff19166bffffffffffffffffffffffff19168152602001908152602001600020541415610e7f57600080fd5b610e8a848484610d3d565b9050949350505050565b6060808890506060889050606088905060608890506060889050606088905060608890506060815183518551875189518b518d510101010101016040519080825280601f01601f191660200182016040528015610f005781602001600182028038833980820191505090505b5090506060819050600080905060008090505b8a51811015610f81578a8181518110610f2857fe5b602001015160f81c60f81b838380600101945081518110610f4557fe5b60200101907effffffffffffffffffffffffffffffffffffffffffffffffffffffffffffff1916908160001a9053508080600101915050610f13565b5060008090505b8951811015610ff657898181518110610f9d57fe5b602001015160f81c60f81b838380600101945081518110610fba57fe5b60200101907effffffffffffffffffffffffffffffffffffffffffffffffffffffffffffff1916908160001a9053508080600101915050610f88565b5060008090505b885181101561106b5788818151811061101257fe5b602001015160f81c60f81b83838060010194508151811061102f57fe5b60200101907effffffffffffffffffffffffffffffffffffffffffffffffffffffffffffff1916908160001a9053508080600101915050610ffd565b5060008090505b87518110156110e05787818151811061108757fe5b602001015160f81c60f81b8383806001019450815181106110a457fe5b60200101907effffffffffffffffffffffffffffffffffffffffffffffffffffffffffffff1916908160001a9053508080600101915050611072565b5060008090505b8651811015611155578681815181106110fc57fe5b602001015160f81c60f81b83838060010194508151811061111957fe5b60200101907effffffffffffffffffffffffffffffffffffffffffffffffffffffffffffff1916908160001a90535080806001019150506110e7565b5060008090505b85518110156111ca5785818151811061117157fe5b602001015160f81c60f81b83838060010194508151811061118e57fe5b60200101907effffffffffffffffffffffffffffffffffffffffffffffffffffffffffffff1916908160001a905350808060010191505061115c565b5060008090505b845181101561123f578481815181106111e657fe5b602001015160f81c60f81b83838060010194508151811061120357fe5b60200101907effffffffffffffffffffffffffffffffffffffffffffffffffffffffffffff1916908160001a90535080806001019150506111d1565b50819a5050505050505050505050979650505050505050565b60606000606490506060816040519080825280601f01601f1916602001820160405280156112955781602001600182028038833980820191505090505b50905060008090505b60008514611310576000600a86816112b257fe5b069050600a86816112bf57fe5b0495508060300160f81b8383806001019450815181106112db57fe5b60200101907effffffffffffffffffffffffffffffffffffffffffffffffffffffffffffff1916908160001a9053505061129e565b6060816040519080825280601f01601f1916602001820160405280156113455781602001600182028038833980820191505090505b50905060008090505b828110156113ba57836001828503038151811061136757fe5b602001015160f81c60f81b82828151811061137e57fe5b60200101907effffffffffffffffffffffffffffffffffffffffffffffffffffffffffffff1916908160001a905350808060010191505061134e565b5080945050505050919050565b6000806000905060608390505b80518210156115c857600060f81b60078284815181106113f057fe5b602001015160f81c60f81b7effffffffffffffffffffffffffffffffffffffffffffffffffffffffffffff1916901c7effffffffffffffffffffffffffffffffffffffffffffffffffffffffffffff19161415611452576001820191506115bb565b600660f81b600582848151811061146557fe5b602001015160f81c60f81b7effffffffffffffffffffffffffffffffffffffffffffffffffffffffffffff1916901c7effffffffffffffffffffffffffffffffffffffffffffffffffffffffffffff191614156114c7576002820191506115ba565b600e60f81b60048284815181106114da57fe5b602001015160f81c60f81b7effffffffffffffffffffffffffffffffffffffffffffffffffffffffffffff1916901c7effffffffffffffffffffffffffffffffffffffffffffffffffffffffffffff1916141561153c576003820191506115b9565b601e60f81b600382848151811061154f57fe5b602001015160f81c60f81b7effffffffffffffffffffffffffffffffffffffffffffffffffffffffffffff1916901c7effffffffffffffffffffffffffffffffffffffffffffffffffffffffffffff191614156115b1576004820191506115b8565b6001820191505b5b5b5b82806001019350506113d4565b5050919050565b60006040518251602084019350604067ffffffffffffffc06001830116016009828203106001811461160057611607565b6040820191505b50776745230100efcdab890098badcfe001032547600c3d2e1f0611662565b60008090508383101561165b578282015190508284039350602084101561165a576001846020036101000a03198082169150505b5b9392505050565b60005b82811015611a7057611678848289611626565b8552611688846020830189611626565b6020860152604081850310600181146116a0576116a9565b60808286038701535b50604083038114600181146116bd576116cd565b6008850260208701511760208701525b5060405b60808110156117595760408103860151603882038701511860208203870151600c830388015118187c010000000100000001000000010000000100000001000000010000000163800000008204167ffffffffefffffffefffffffefffffffefffffffefffffffefffffffefffffffe6002830216179050808288015250600c810190506116d1565b5060805b6101408110156117e657608081038601516070820387015118604082038701516018830388015118187c030000000300000003000000030000000300000003000000030000000363400000008204167ffffffffcfffffffcfffffffcfffffffcfffffffcfffffffcfffffffcfffffffc600483021617905080828801525060188101905061175d565b508160008060005b6050811015611a42576014810460008114611820576001811461186a57600281146118a7576003811461190a57611943565b6501000000000085046a01000000000000000000008604189350836f01000000000000000000000000000000860416935083650100000000008604189350635a8279999250611943565b6a010000000000000000000085046f01000000000000000000000000000000860418935083650100000000008604189350636ed9eba19250611943565b6a010000000000000000000085046f01000000000000000000000000000000860417935083650100000000008604169350836a010000000000000000000086046f01000000000000000000000000000000870416179350638f1bbcdc9250611943565b6a010000000000000000000085046f0100000000000000000000000000000086041893508365010000000000860418935063ca62c1d692505b50601f770800000000000000000000000000000000000000000000008504168063ffffffe073080000000000000000000000000000000000000087041617905080840190508063ffffffff86160190508083019050807c0100000000000000000000000000000000000000000000000000000000600484028c0151040190507401000000000000000000000000000000000000000081026501000000000086041794506a0100000000000000000000633fffffff6a040000000000000000000087041663c00000006604000000000000880416170277ffffffff00ffffffff000000000000ffffffff00ffffffff8616179450506001810190506117ee565b5077ffffffff00ffffffff00ffffffff00ffffffff00ffffffff838601169450505050604081019050611665565b506c0100000000000000000000000063ffffffff821667ffffffff000000006101008404166bffffffff0000000000000000620100008504166fffffffff000000000000000000000000630100000086041673ffffffff000000000000000000000000000000006401000000008704161717171702945050505050919050565b600082601f830112611b0157600080fd5b8135611b14611b0f82611ea6565b611e79565b91508181835260208401935060208101905083856020840282011115611b3957600080fd5b60005b83811015611b695781611b4f8882611b73565b845260208401935060208301925050600181019050611b3c565b5050505092915050565b600081359050611b8281611f99565b92915050565b60006101408284031215611b9b57600080fd5b81905092915050565b600060208284031215611bb657600080fd5b6000611bc484828501611b73565b91505092915050565b600080600060608486031215611be257600080fd5b6000611bf086828701611b73565b9350506020611c0186828701611b73565b925050604084013567ffffffffffffffff811115611c1e57600080fd5b611c2a86828701611af0565b9150509250925092565b60008060008060808587031215611c4a57600080fd5b6000611c5887828801611b73565b9450506020611c6987828801611b73565b9350506040611c7a87828801611b73565b925050606085013567ffffffffffffffff811115611c9757600080fd5b611ca387828801611af0565b91505092959194509250565b600060208284031215611cc157600080fd5b600082013567ffffffffffffffff811115611cdb57600080fd5b611ce784828501611b88565b91505092915050565b611cf981611ee4565b82525050565b611d10611d0b82611ef0565b611f85565b82525050565b611d1f81611f1c565b82525050565b611d36611d3182611f1c565b611f8f565b82525050565b6000611d4782611ece565b611d518185611ed9565b9350611d61818560208601611f52565b80840191505092915050565b6000611d7a600783611ed9565b91507f636f6d6d697420000000000000000000000000000000000000000000000000006000830152600782019050919050565b611db681611f48565b82525050565b6000611dc88285611d25565b601482019150611dd88284611d25565b6014820191508190509392505050565b6000611df382611d6d565b9150611dff8286611d3c565b9150611e0b8285611cff565b600182019150611e1b8284611d3c565b9150819050949350505050565b6000602082019050611e3d6000830184611cf0565b92915050565b6000602082019050611e586000830184611d16565b92915050565b6000602082019050611e736000830184611dad565b92915050565b6000604051905081810181811067ffffffffffffffff82111715611e9c57600080fd5b8060405250919050565b600067ffffffffffffffff821115611ebd57600080fd5b602082029050602081019050919050565b600081519050919050565b600081905092915050565b60008115159050919050565b60007fff0000000000000000000000000000000000000000000000000000000000000082169050919050565b60007fffffffffffffffffffffffffffffffffffffffff00000000000000000000000082169050919050565b6000819050919050565b60005b83811015611f70578082015181840152602081019050611f55565b83811115611f7f576000848401525b50505050565b6000819050919050565b6000819050919050565b611fa281611f1c565b8114611fad57600080fd5b5056fea265627a7a72305820e06f4f9e1f5e34c96a27292ddb72a9e9b4ca8a1425ff5e33af85be2acba6129b6c6578706572696d656e74616cf50037",
  "source": "pragma solidity ^0.5.2;\npragma experimental ABIEncoderV2;\n\nimport \"./SHA1.sol\";\n\ncontract Commits {\n  mapping (bytes20 => uint256) public checkpoints;\n\n  event Checkpointed(address indexed sender, bytes20 indexed commit);\n\n  struct Commit {\n    string tree;\n    string[] parents;\n    string author;\n    uint256 authorDate;\n    string authorDateTzOffset;\n    string committer;\n    uint256 commitDate;\n    string commitDateTzOffset;\n    string message;\n    string signature;\n  }\n\n  function checkpoint(\n    Commit calldata _commit\n  ) external returns (bytes20 commitHash) {\n    require(_commit.commitDate <= now + 24 hours);\n    require(_commit.commitDate > now - 24 hours);\n\n    string memory treeStr = concat(\"tree \", _commit.tree, \"\\n\", \"\", \"\", \"\", \"\");\n\n    string memory parentsStr;\n    for (uint256 i = 0; i < _commit.parents.length; i++) {\n      parentsStr = concat(parentsStr, \"parent \", _commit.parents[i], \"\\n\", \"\", \"\", \"\");\n    }\n\n    string memory authorStr = concat(\"author \", _commit.author, \" \", uint2str(_commit.authorDate), \" \", _commit.authorDateTzOffset, \"\\n\");\n\n    string memory committerStr = concat(\"committer \", _commit.committer, \" \", uint2str(_commit.commitDate), \" \", _commit.commitDateTzOffset, \"\\n\");\n\n    string memory signatureStr = \"\";\n    if (bytes(_commit.signature).length > 0) {\n      signatureStr = concat(\"gpgsig \", _commit.signature, \"\", \"\", \"\", \"\", \"\");\n    }\n\n    string memory messageStr = concat(\"\\n\", _commit.message, \"\", \"\", \"\", \"\", \"\");\n\n    string memory data = concat(treeStr, parentsStr, authorStr, committerStr, signatureStr, messageStr, \"\");\n\n    commitHash = SHA1.sha1(abi.encodePacked(\"commit \", uint2str(strsize(data)), byte(0), data));\n\n    require(checkpoints[commitHash] == 0);\n    checkpoints[commitHash] = _commit.commitDate;\n\n    emit Checkpointed(msg.sender, commitHash);\n  }\n\n  function checkpointed(bytes20 commit) public view returns (bool) {\n\n    return checkpoints[commit] != 0;\n  }\n\n  function checkpointVerify(bytes20 commit, bytes20 root, bytes20 leaf, bytes20[] memory proof) public view returns (bool) {\n\n    require(checkpoints[commit] != 0);\n    return verify(root, leaf, proof);\n  }\n\n  function verify(bytes20 root, bytes20 leaf, bytes20[] memory proof) public pure returns (bool) {\n    bytes20 computedHash = leaf;\n\n    for (uint256 i = 0; i < proof.length; i++) {\n      bytes20 proofElement = proof[i];\n\n      if (computedHash < proofElement) {\n        // Hash(current computed hash + current element of the proof)\n        computedHash = SHA1.sha1(abi.encodePacked(computedHash, proofElement));\n      } else {\n        // Hash(current element of the proof + current computed hash)\n        computedHash = SHA1.sha1(abi.encodePacked(proofElement, computedHash));\n      }\n    }\n\n    // Check if the computed hash (root) is equal to the provided root\n    return computedHash == root;\n  }\n\n  function concat(string memory _a, string memory _b, string memory _c, string memory _d, string memory _e, string memory _f, string memory _g) internal returns (string memory) {\n    bytes memory _ba = bytes(_a);\n    bytes memory _bb = bytes(_b);\n    bytes memory _bc = bytes(_c);\n    bytes memory _bd = bytes(_d);\n    bytes memory _be = bytes(_e);\n    bytes memory _bf = bytes(_f);\n    bytes memory _bg = bytes(_g);\n    string memory abcdefg = new string(_ba.length + _bb.length + _bc.length + _bd.length + _be.length + _bf.length + _bg.length);\n    bytes memory babcdefg = bytes(abcdefg);\n    uint k = 0;\n    for (uint i = 0; i < _ba.length; i++) babcdefg[k++] = _ba[i];\n    for (uint i = 0; i < _bb.length; i++) babcdefg[k++] = _bb[i];\n    for (uint i = 0; i < _bc.length; i++) babcdefg[k++] = _bc[i];\n    for (uint i = 0; i < _bd.length; i++) babcdefg[k++] = _bd[i];\n    for (uint i = 0; i < _be.length; i++) babcdefg[k++] = _be[i];\n    for (uint i = 0; i < _bf.length; i++) babcdefg[k++] = _bf[i];\n    for (uint i = 0; i < _bg.length; i++) babcdefg[k++] = _bg[i];\n    return string(babcdefg);\n  }\n\n  function uint2str(uint v) internal view returns (string memory str) {\n    uint256 maxlength = 100;\n    bytes memory reversed = new bytes(maxlength);\n    uint i = 0;\n    while (v != 0) {\n      uint remainder = v % 10;\n      v = v / 10;\n\n      reversed[i++] = byte(uint8(48 + remainder));\n    }\n\n    bytes memory s = new bytes(i);\n    for (uint j = 0; j < i; j++) {\n      s[j] = reversed[i - j - 1];\n    }\n\n    str = string(s);\n  }\n\n  function strsize(string memory str) internal view returns (uint length) {\n    uint256 i = 0;\n    bytes memory strbytes = bytes(str);\n\n    while (i < strbytes.length) {\n      if (strbytes[i]>>7 == 0) {\n        i+=1;\n      } else if (strbytes[i]>>5 == 0x06) {\n        i+=2;\n      } else if (strbytes[i]>>4 == 0x0E) {\n        i+=3;\n      } else if (strbytes[i]>>3 == 0x1E) {\n        i+=4;\n      } else {\n        //For safety\n        i += 1;\n      }\n\n      length++;\n    }\n  }\n}\n",
  "sourcePath": "/Volumes/hd2/Sandbox/git-commits-ethereum/contracts/Commits.sol",
  "compiler": {
    "name": "solc",
    "version": "0.5.8+commit.23d335f2.Emscripten.clang"
  },
  "schemaVersion": "3.0.11",
  "updatedAt": "2019-07-28T10:46:05.506Z",
  "devdoc": {
    "methods": {}
  },
  "userdoc": {
    "methods": {}
  }
}